S00F000070726F6A6563742E737265631E
S11300000C9434000C9451000C9451000C94510045
S11300100C9451000C9451000C9451000C94510018
S11300200C9451000C9451000C943E010C940B025E
S11300300C9451000C9451000C9451000C945100F8
S11300400C9451000C9451000C9451000C945100E8
S11300500C9451000C9451000C9451000C945100D8
S11300600C9451000C94510011241FBECFEFD8E022
S1130070DEBFCDBF11E0A0E0B1E0E8ECF5E002C0E6
S113008005900D92A637B107D9F721E0A6E7B1E0B4
S113009001C01D92AB37B207E1F70E9400010C9436
S11300A0E2020C940000CF93DF9300D0CDB7DEB70B
S11300B09A83898329813A813695279536952795A0
S11300C036952795A5ECB0E20E94D302AC01529577
S11300D042954F7045275F7045279A01ADECBCEC03
S11300E00E94D302969587959695879596958795C0
S11300F09C01220F331F880F991F880F991F880FA7
S1130100991F820F931F9A01281B390BC901C096AE
S11301100E94B90229813A8136952795369527950B
S1130120ABE7B4E10E94D302AC01569547959A011E
S1130130ADECBCEC0E94D302969587959695879575
S1130140969587959C01220F331F880F991F880F5E
S1130150991F880F991F820F931F9A01281B390B2F
S1130160C901C0960E94B90229813A81ADECBCEC68
S11301700E94D302AC0156954795569547955695DE
S113018047959A010E94D3029695879596958795EF
S1130190969587959C01220F331F880F991F880F0E
S11301A0991F880F991F820F931F9A01281B390BDF
S11301B0C901C0960E94B90249815A819A01ADECE5
S11301C0BCEC0E94D3029695879596958795969553
S11301D087959C01220F331F880F991F880F991F41
S11301E0880F991F820F931F9A01281B390BC9018D
S11301F0C0960E94B9020F900F90DF91CF9108959D
S113020080E480937C0087E880937A0083E084BD57
S113021084E085BD80E68AB9EFE6F0E080E2808381
S113022080818E7F808385B1816185B91092800041
S113023089E48093810080E89EE390938900809311
S113024088000E94A80210927601789482E286BB0C
S113025084B18C6184B9EAE7F0E0808180648083B2
S113026080917A0086FDFCCF80917800909179008E
S1130270969587959695879587BDEDCF1F920F929A
S11302800FB60F9211242F933F934F935F936F9365
S11302907F938F939F93AF93BF93EF93FF93CF93EA
S11302A0DF9300D000D0CDB7DEB782E086BB80916B
S11302B07601823091F1833009F441C0811194C0F8
S11302C0189BFECF81E080937601EFE6F0E0808119
S11302D08F7D808382E0808384B58F7784BD85B1F0
S11302E08B7F85B985B1877F85B985B18F7E85B9C7
S11302F08091840090918500969587959695879531
S113030090937A018093790180E091E00E94C00289
S1130310109278011092770167C0189BFECF10925B
S1130320760184B58F7784BD85E085B988E091E056
S11303300E94C002109278011092770155C0109269
S11303407601EFE6F0E080818D7F808385B188605F
S113035085B980917800909179009C838B8381E4A6
S113036080937C00EAE7F0E0808180648083809160
S11303707A0086FDFCCF80917800909179009A8371
S1130380898380E480937C0084E191E00E94C00230
S113039080E291E00E94C0028091770190917801FF
S11303A00E94530086E691E00E94C00289E391E036
S11303B00E94C00289819A810E94530086E691E0DE
S11303C00E94C00282E591E00E94C0028B819C8160
S11303D00E94530084E691E00E94C002189BFECF65
S11303E010927801109277010F900F900F900F9058
S11303F0DF91CF91FF91EF91BF91AF919F918F9139
S11304007F916F915F914F913F912F910F900FBE0C
S11304100F901F9018951F920F920FB60F921124F0
S11304202F933F934F935F936F937F938F939F93F8
S1130430AF93BF93EF93FF9380917601823039F1AC
S1130440833009F451C0813009F071C08091770183
S113045090917801883E934080F010927801109238
S1130460770182E08093760184B5806884BDEFE6ED
S1130470F0E08081806280835AC0809177019091FE
S113048078010196909378018093770150C0609130
S11304907701709178014091790150917A0120910E
S11304A077013091780191E06417750708F490E0C2
S11304B081E0243F314008F480E0892359F0109210
S11304C078011092770183E08093760184B58F7769
S11304D084BD2DC08091770190917801019690930D
S11304E078018093770123C08091770190917801FE
S11304F0883E934098F01092780110927701109200
S11305007601EFE6F0E080818D7F808385B18460A1
S113051085B988E691E00E94C00209C08091770104
S11305209091780101969093780180937701FF91DF
S1130530EF91BF91AF919F918F917F916F915F9157
S11305404F913F912F910F900FBE0F901F901895D0
S11305501092C50087E68093C400E0ECF0E080814F
S11305608D7F808388E18093C10086E08093C20000
S113057008959091C00095FFFCCF8093C600089524
S11305800F931F93CF938C01C0E003C00E94B90264
S1130590CF5FF801EC0FF11D80818111F7CFCF916E
S11305A01F910F910895A29FB001B39FC001A39F13
S11305B0700D811D1124911DB29F700D811D112498
S10B05C0911D0895F894FFCF8A
S11305C85354415254200D00092043484541544591
S11305D852200D00092057696E6E65723A200D008D
S11305E8092009207265616374696F6E74696D65A9
S11305F820696E206D733A20000920092070726505
S11306087373757265206F6E20627574746F6E3AB9
S11306182000092009206C69676874206C65766578
S11306286C3A20000D200D000920546F6F20736C64
S10906386F77200D0000A5
S9030000FC
